000000001010200MAF FILE03.002016040403301920151106     MERCHANT SERVICES   PROPRIETARY AND CONFIDENTIAL  0N3859                                                                                        
000000012070200024445018686923                      000000001MEDFUSION                840000001                                                                                                        
00000000330020006142021062500000000005   50501701 4111111111111111   12230000000100000000000000000000000001111VISA         100585729  02594 0000000000099999995321300042851699                         
00000000730120057     0000         000000000840  0700020125300000000000000    000000000                                                                                                                
0000000053062007z441mWtj9LWWqkOljSWIgfzk                                                                                                                                                               
000000021970200END OF MID  4445018686923   000001000000040000008987000000000000000000000000000000000000000000000089870+000000008                                                                       
000000016910200END OF FILE 00000540FTPS MERCHANT SERVICES   PROPRIETARY AND CONFIDENTIAL                                                                                                               
